S00E0000446F5F416E322E7372656323
S11300000C942A000C9447000C9447000C9447006D
S11300100C9447000C9447000C9447000C94470040
S11300200C9447000C9447000C9447000C94470030
S11300300C9447000C9447000C9447000C94470020
S11300400C9447000C9447000C9447000C94470010
S11300500C94470011241FBECFE5D4E0DEBFCDBF12
S113006010E0A0E6B0E0E0EDFBE002C005900D92E8
S1130070A639B107D9F720E0A6E9B0E001C01D9286
S1130080A63BB207E1F70E9454020C94E6050C94D7
S11300900000CF92DF92EF92FF9218C088E384BDF4
S11300A085B5816085BD08B606FEFDCF85B58E7F1A
S11300B085BD80E488BFC90102C085E290E09C014F
S11300C021503109892B51F7C701B6016B017C011D
S11300D021E0C21AD108E108F108672B682B692BCB
S11300E061F7FF90EF90DF90CF9008958EEF84BD7D
S11300F085B5816085BD08B606FEFDCF85B58E7FCA
S113010085BD80E488BF089585EE84BD85B5816092
S113011085BD08B606FEFDCF85B58E7F85BD80E41E
S113012088BF0895CF93DF93C0E0D0E003C00E945E
S113013084002196C630D105D4F30E947600DF9165
S1130140CF9108950E9492000E94920008950E9407
S113015084000E9484000E9484000E948400089508
S11301609AB392609ABB813021F48BB382608BBBCB
S113017008958BB38D7F8BBB08958AB38D7F8ABB23
S113018089B38695817090E0089581E00E94B00063
S113019080E00E94B00064E170E080E090E00E94A2
S11301A0490081E00E94B0000E94BD000197E1F384
S11301B00E94BD00892BE1F30E94BD000197E1F389
S11301C00895CF93DF93C0E0D0E025C00E94BD0026
S11301D0892BE1F30E94A7000E94BD00019761F4FE
S11301E08091980090919900880F991F8160909355
S11301F09900809398000AC080919800909199008A
S1130200880F991F90939900809398000E94BD00D5
S11302100197E1F32196C830D105C4F2809198008A
S11302209091990090939700809396001092990072
S113023010929800DF91CF910895CF92DF92EF92C0
S1130240FF920F931F93CF93DF938C01EB010E94D6
S1130250C5000E94E1009093A9008093A8000E9429
S1130260E1009093AF008093AE000E94E100909370
S1130270AB008093AA000E94E1009093A7008093B2
S1130280A6000E94E1009093AD008093AC006091C1
S1130290A8007091A900072E000C880B990B0E94EE
S11302A09C046B017C016091AE007091AF00072E3D
S11302B0000C880B990B0E949C0420E030E040E283
S11302C051E40E94F2039B01AC01C701B6010E94F4
S11302D08603F80160837183828393836091AA000B
S11302E07091AB00072E000C880B990B0E949C04A4
S11302F06B017C016091A6007091A700072E000C91
S1130300880B990B0E949C0420E030E040E251E409
S11303100E94F2039B01AC01C701B6010E9486034F
S1130320688379838A839B8364E670E080E090E04D
S11303300E944900DF91CF911F910F91FF90EF90A0
S1130340DF90CF90089582B3806882BB0E947600CC
S113035082B38F7782BB0E949200089580FF04C00D
S113036095B3906195BB03C095B39F7E95BB81FF08
S113037004C095B3906295BB03C095B39F7D95BBB4
S113038082FF04C095B3906495BB03C095B39F7B73
S113039095BB83FF04C085B3806885BB089585B38E
S11303A08F7785BB0895CF93C82F82958F700E9455
S11303B0AE010E94A3018C2F0E94AE010E94A301F2
S11303C0CF91089581E00E94D30162E070E080E063
S11303D090E00E944900089580E00E94AE0164E12B
S11303E070E080E090E00E94490082B38F7B82BB82
S11303F082B38F7D82BB83E00E94AE010E94A30181
S113040065E070E080E090E00E9449000E94A30152
S113041084E690E00E94A2000E94A30182E00E9470
S1130420AE010E94A30188E20E94D3018CE00E94E5
S1130430D30186E00E94D30181E00E94D30182E0CF
S11304400E94D30162E070E080E090E00E944900E5
S11304500895CF93672B19F4C0E8C80F02C0C0EC0D
S1130460C80F61E070E080E090E00E9449008C2FAA
S11304700E94D3010E949200CF91089592B3906498
S113048092BB0E94D30182B38F7B82BB0895CF932A
S1130490DF93EC0103C00E943E0221968881811102
S11304A0FACFDF91CF9108958FEF81BB84BB8AB3DC
S11304B084608ABB0E94EC0160E070E085E090E01B
S11304C00E94290280E690E00E94470261E070E009
S11304D082E090E00E94290288E690E00E944702B0
S11304E062EA70E08EE990E00E941D0120E030E0B5
S11304F040E251E460919E0070919F008091A000C1
S11305009091A1000E942D050E9464047093B5008F
S11305106093B400C090A200D090A300E090A40027
S1130520F090A50020E030E040E251E4C701B601BC
S11305300E942D050E9464047093B1006093B00082
S113054020E030E040EF51E4C701B6010E942805E5
S113055018160CF058C080919C0090919D00892B36
S113056041F40E94E20181E090E090939D00809329
S11305709C0010929B0010929A008BB384608BBBFA
S113058060E070E083E090E00E94290285E790E05B
S11305900E94470261E070E080E090E00E9429023E
S11305A080E890E00E9447028091B0009091B100F1
S11305B0C4E6D0E0BE010E94BE0580E3860F0E941F
S11305C03E028091B0009091B100BE010E94BE0530
S11305D0CAE0D0E0BE010E94BE0580E3860F0E94FF
S11305E03E028EE20E943E028091B0009091B100E2
S11305F0BE010E94BE05805D0E943E0287E890E035
S11306000E9447026DCF80919A0090919B00892BA4
S113061041F40E94E20181E090E090939B0080937A
S11306209A0010929D0010929C0060E070E080E0BF
S113063090E00E9429028BE890E00E94470280919A
S1130640B4009091B50004E610E0B8010E94BE0524
S113065080E3860F0E943E028091B4009091B50021
S1130660B8010E94BE05CAE0D0E0BE010E94BE05EA
S113067080E3860F0E943E028EE20E943E02809139
S1130680B4009091B500BE010E94BE05805D0E9439
S11306903E0282E990E00E94470261E070E080E05F
S11306A090E00E94290280E890E00E944702809135
S11306B0B0009091B100B8010E94BE0580E3860F9E
S11306C00E943E028091B0009091B100B8010E9456
S11306D0BE05BE010E94BE0580E3860F0E943E0255
S11306E08EE20E943E028091B0009091B100BE0162
S11306F00E94BE05805D0E943E0287E890E00E9451
S113070047028BB38B7F8BBBEBCE5058BB27AA27FA
S11307100E949D030C94EE040E94E00438F00E94B1
S1130720E70420F039F49F3F19F426F40C94DD0417
S11307300EF4E095E7FB0C94D704E92F0E94FF0424
S113074058F3BA17620773078407950720F079F402
S1130750A6F50C9421050EF4E0950B2EBA2FA02DCE
S11307600B01B90190010C01CA01A0011124FF275A
S1130770591B99F0593F50F4503E68F11A16F04055
S1130780A22F232F342F4427585FF3CF4695379554
S11307902795A795F0405395C9F77EF41F16BA0B19
S11307A0620B730B840BBAF09150A1F0FF0FBB1FC7
S11307B0661F771F881FC2F70EC0BA0F621F731F10
S11307C0841F48F4879577956795B795F7959E3F6D
S11307D008F0B0CF9395880F08F09927EE0F9795FE
S11307E0879508950E9406040C94EE040E94E70481
S11307F058F00E94E00440F029F45F3F29F00C9483
S1130800D70451110C9422050C94DD040E94FF04BA
S113081068F39923B1F3552391F3951B550BBB272B
S1130820AA2762177307840738F09F5F5F4F220F70
S1130830331F441FAA1FA9F335D00E2E3AF0E0E867
S113084032D091505040E695001CCAF72BD0FE2FB1
S113085029D0660F771F881FBB1F26173707480745
S1130860AB07B0E809F0BB0B802DBF01FF279358FD
S11308705F4F3AF09E3F510578F00C94D7040C94E6
S113088022055F3FE4F3983ED4F386957795679508
S1130890B795F7959F5FC9F7880F911D9695879532
S11308A097F90895E1E0660F771F881FBB1F621751
S11308B073078407BA0720F0621B730B840BBA0B0F
S11308C0EE1F88F7E09508950E946B046894B111B7
S11308D00C94220508950E94070588F09F5798F00C
S11308E0B92F9927B751B0F0E1F0660F771F881F31
S11308F0991F1AF0BA95C9F714C0B13091F00E944B
S11309002105B1E008950C942105672F782F8827DD
S1130910B85F39F0B93FCCF3869577956795B39571
S1130920D9F73EF490958095709561957F4F8F4FE0
S11309309F4F0895E89409C097FB3EF490958095E5
S1130940709561957F4F8F4F9F4F9923A9F0F92F91
S113095096E9BB279395F695879577956795B7950F
S1130960F111F8CFFAF4BB0F11F460FF1BC06F5FF5
S11309707F4F8F4F9F4F16C0882311F096E911C007
S1130980772321F09EE8872F762F05C0662371F028
S113099096E8862F70E060E02AF09A95660F771F3C
S11309A0881FDAF7880F9695879597F9089597F930
S11309B09F6780E870E060E008959FEF80EC089501
S11309C000240A941616170618060906089500242A
S11309D00A9412161306140605060895092E0394A4
S11309E0000C11F4882352F0BB0F40F4BF2B11F418
S11309F060FF04C06F5F7F4F8F4F9F4F089557FD77
S1130A009058440F551F59F05F3F71F04795880F78
S1130A1097FB991F61F09F3F79F08795089512160F
S1130A2013061406551FF2CF4695F1DF08C01616BB
S1130A3017061806991FF1CF86957105610508946C
S1130A400895E894BB2766277727CB0197F9089583
S1130A500E949A0508F48FEF08950E9440050C94B3
S1130A60EE040E94E00438F00E94E70420F095238D
S1130A7011F00C94D7040C94DD0411240C94220579
S1130A800E94FF0470F3959FC1F3950F50E0551F2A
S1130A90629FF001729FBB27F00DB11D639FAA27CF
S1130AA0F00DB11DAA1F649F6627B00DA11D661F1E
S1130AB0829F2227B00DA11D621F739FB00DA11D3F
S1130AC0621F839FA00D611D221F749F3327A00DF9
S1130AD0611D231F849F600D211D822F762F6A2F95
S1130AE011249F5750409AF0F1F088234AF0EE0FFA
S1130AF0FF1FBB1F661F771F881F91505040A9F727
S1130B009E3F510580F00C94D7040C9422055F3F5E
S1130B10E4F3983ED4F3869577956795B795F79562
S1130B20E7959F5FC1F7FE2B880F911D96958795DA
S1130B3097F90895990F0008550FAA0BE0E8FEEF06
S1130B4016161706E807F907C0F012161306E4078D
S1130B50F50798F0621B730B840B950B39F40A2686
S1130B6061F0232B242B252B21F408950A2609F464
S1130B70A140A6958FEF811D811D089597FB072E37
S1130B8016F4009407D077FD09D00E94D20507FC23
S1130B9005D03EF4909581959F4F08957095619589
S1130BA07F4F0895AA1BBB1B51E107C0AA1FBB1F9F
S1130BB0A617B70710F0A61BB70B881F991F5A95E5
S1130BC0A9F780959095BC01CD010895F894FFCFC5
S1130BD057656C636F6D6500456E74657220726550
S1130BE073657420005761726E696E67212121005C
S1130BF054454D503A2000202A430048554D493A67
S1090C0020002025000085
S9030000FC
